{
  "contractName": "Decentragram",
  "abi": [
    {
      "inputs": [],
      "payable": false,
      "stateMutability": "nonpayable",
      "type": "constructor"
    },
    {
      "anonymous": false,
      "inputs": [
        {
          "indexed": false,
          "internalType": "uint256",
          "name": "id",
          "type": "uint256"
        },
        {
          "indexed": false,
          "internalType": "string",
          "name": "prescription",
          "type": "string"
        },
        {
          "indexed": false,
          "internalType": "uint256",
          "name": "num",
          "type": "uint256"
        },
        {
          "indexed": false,
          "internalType": "address payable",
          "name": "author",
          "type": "address"
        }
      ],
      "name": "DataCreated1",
      "type": "event"
    },
    {
      "anonymous": false,
      "inputs": [
        {
          "indexed": false,
          "internalType": "uint256",
          "name": "id",
          "type": "uint256"
        },
        {
          "indexed": false,
          "internalType": "string",
          "name": "prescription",
          "type": "string"
        },
        {
          "indexed": false,
          "internalType": "uint256",
          "name": "num",
          "type": "uint256"
        },
        {
          "indexed": false,
          "internalType": "address payable",
          "name": "author",
          "type": "address"
        }
      ],
      "name": "DataCreated2",
      "type": "event"
    },
    {
      "anonymous": false,
      "inputs": [
        {
          "indexed": false,
          "internalType": "uint256",
          "name": "id",
          "type": "uint256"
        },
        {
          "indexed": false,
          "internalType": "string",
          "name": "hash",
          "type": "string"
        },
        {
          "indexed": false,
          "internalType": "string",
          "name": "description",
          "type": "string"
        },
        {
          "indexed": false,
          "internalType": "string",
          "name": "date",
          "type": "string"
        },
        {
          "indexed": false,
          "internalType": "uint256",
          "name": "num",
          "type": "uint256"
        },
        {
          "indexed": false,
          "internalType": "uint256",
          "name": "tipAmount",
          "type": "uint256"
        },
        {
          "indexed": false,
          "internalType": "address payable",
          "name": "author",
          "type": "address"
        }
      ],
      "name": "ImageCreated1",
      "type": "event"
    },
    {
      "anonymous": false,
      "inputs": [
        {
          "indexed": false,
          "internalType": "uint256",
          "name": "id",
          "type": "uint256"
        },
        {
          "indexed": false,
          "internalType": "string",
          "name": "hash",
          "type": "string"
        },
        {
          "indexed": false,
          "internalType": "string",
          "name": "description",
          "type": "string"
        },
        {
          "indexed": false,
          "internalType": "string",
          "name": "date",
          "type": "string"
        },
        {
          "indexed": false,
          "internalType": "uint256",
          "name": "num",
          "type": "uint256"
        },
        {
          "indexed": false,
          "internalType": "uint256",
          "name": "tipAmount",
          "type": "uint256"
        },
        {
          "indexed": false,
          "internalType": "address payable",
          "name": "author",
          "type": "address"
        }
      ],
      "name": "ImageCreated2",
      "type": "event"
    },
    {
      "anonymous": false,
      "inputs": [
        {
          "indexed": false,
          "internalType": "uint256",
          "name": "id",
          "type": "uint256"
        },
        {
          "indexed": false,
          "internalType": "string",
          "name": "hash",
          "type": "string"
        },
        {
          "indexed": false,
          "internalType": "string",
          "name": "name",
          "type": "string"
        },
        {
          "indexed": false,
          "internalType": "uint256",
          "name": "phoneNumber",
          "type": "uint256"
        },
        {
          "indexed": false,
          "internalType": "string",
          "name": "bloodGroup",
          "type": "string"
        },
        {
          "indexed": false,
          "internalType": "uint256",
          "name": "num",
          "type": "uint256"
        },
        {
          "indexed": false,
          "internalType": "address payable",
          "name": "author",
          "type": "address"
        }
      ],
      "name": "ProfileCreated",
      "type": "event"
    },
    {
      "anonymous": false,
      "inputs": [
        {
          "indexed": false,
          "internalType": "uint256",
          "name": "id",
          "type": "uint256"
        },
        {
          "indexed": false,
          "internalType": "string",
          "name": "hash",
          "type": "string"
        },
        {
          "indexed": false,
          "internalType": "string",
          "name": "name",
          "type": "string"
        },
        {
          "indexed": false,
          "internalType": "uint256",
          "name": "phoneNumber",
          "type": "uint256"
        },
        {
          "indexed": false,
          "internalType": "string",
          "name": "bloodGroup",
          "type": "string"
        },
        {
          "indexed": false,
          "internalType": "uint256",
          "name": "num",
          "type": "uint256"
        },
        {
          "indexed": false,
          "internalType": "address payable",
          "name": "author",
          "type": "address"
        }
      ],
      "name": "ProfileCreated2",
      "type": "event"
    },
    {
      "anonymous": false,
      "inputs": [
        {
          "indexed": false,
          "internalType": "uint256",
          "name": "id",
          "type": "uint256"
        },
        {
          "indexed": false,
          "internalType": "string",
          "name": "hash",
          "type": "string"
        },
        {
          "indexed": false,
          "internalType": "string",
          "name": "name",
          "type": "string"
        },
        {
          "indexed": false,
          "internalType": "uint256",
          "name": "phoneNumber",
          "type": "uint256"
        },
        {
          "indexed": false,
          "internalType": "string",
          "name": "bloodGroup",
          "type": "string"
        },
        {
          "indexed": false,
          "internalType": "uint256",
          "name": "num",
          "type": "uint256"
        },
        {
          "indexed": false,
          "internalType": "address payable",
          "name": "author",
          "type": "address"
        }
      ],
      "name": "ProfileCreated3",
      "type": "event"
    },
    {
      "constant": true,
      "inputs": [
        {
          "internalType": "uint256",
          "name": "",
          "type": "uint256"
        }
      ],
      "name": "data1",
      "outputs": [
        {
          "internalType": "uint256",
          "name": "id",
          "type": "uint256"
        },
        {
          "internalType": "string",
          "name": "prescription",
          "type": "string"
        },
        {
          "internalType": "uint256",
          "name": "num",
          "type": "uint256"
        },
        {
          "internalType": "address payable",
          "name": "author",
          "type": "address"
        }
      ],
      "payable": false,
      "stateMutability": "view",
      "type": "function"
    },
    {
      "constant": true,
      "inputs": [
        {
          "internalType": "uint256",
          "name": "",
          "type": "uint256"
        }
      ],
      "name": "data2",
      "outputs": [
        {
          "internalType": "uint256",
          "name": "id",
          "type": "uint256"
        },
        {
          "internalType": "string",
          "name": "prescription",
          "type": "string"
        },
        {
          "internalType": "uint256",
          "name": "num",
          "type": "uint256"
        },
        {
          "internalType": "address payable",
          "name": "author",
          "type": "address"
        }
      ],
      "payable": false,
      "stateMutability": "view",
      "type": "function"
    },
    {
      "constant": true,
      "inputs": [
        {
          "internalType": "uint256",
          "name": "",
          "type": "uint256"
        }
      ],
      "name": "images1",
      "outputs": [
        {
          "internalType": "uint256",
          "name": "id",
          "type": "uint256"
        },
        {
          "internalType": "string",
          "name": "hash",
          "type": "string"
        },
        {
          "internalType": "string",
          "name": "description",
          "type": "string"
        },
        {
          "internalType": "string",
          "name": "date",
          "type": "string"
        },
        {
          "internalType": "uint256",
          "name": "num",
          "type": "uint256"
        },
        {
          "internalType": "uint256",
          "name": "tipAmount",
          "type": "uint256"
        },
        {
          "internalType": "address payable",
          "name": "author",
          "type": "address"
        }
      ],
      "payable": false,
      "stateMutability": "view",
      "type": "function"
    },
    {
      "constant": true,
      "inputs": [
        {
          "internalType": "uint256",
          "name": "",
          "type": "uint256"
        }
      ],
      "name": "images2",
      "outputs": [
        {
          "internalType": "uint256",
          "name": "id",
          "type": "uint256"
        },
        {
          "internalType": "string",
          "name": "hash",
          "type": "string"
        },
        {
          "internalType": "string",
          "name": "description",
          "type": "string"
        },
        {
          "internalType": "string",
          "name": "date",
          "type": "string"
        },
        {
          "internalType": "uint256",
          "name": "num",
          "type": "uint256"
        },
        {
          "internalType": "uint256",
          "name": "tipAmount",
          "type": "uint256"
        },
        {
          "internalType": "address payable",
          "name": "author",
          "type": "address"
        }
      ],
      "payable": false,
      "stateMutability": "view",
      "type": "function"
    },
    {
      "constant": true,
      "inputs": [],
      "name": "name",
      "outputs": [
        {
          "internalType": "string",
          "name": "",
          "type": "string"
        }
      ],
      "payable": false,
      "stateMutability": "view",
      "type": "function"
    },
    {
      "constant": true,
      "inputs": [],
      "name": "patient1Count",
      "outputs": [
        {
          "internalType": "uint256",
          "name": "",
          "type": "uint256"
        }
      ],
      "payable": false,
      "stateMutability": "view",
      "type": "function"
    },
    {
      "constant": true,
      "inputs": [],
      "name": "patient2Count",
      "outputs": [
        {
          "internalType": "uint256",
          "name": "",
          "type": "uint256"
        }
      ],
      "payable": false,
      "stateMutability": "view",
      "type": "function"
    },
    {
      "constant": true,
      "inputs": [],
      "name": "prescCount1",
      "outputs": [
        {
          "internalType": "uint256",
          "name": "",
          "type": "uint256"
        }
      ],
      "payable": false,
      "stateMutability": "view",
      "type": "function"
    },
    {
      "constant": true,
      "inputs": [],
      "name": "prescCount2",
      "outputs": [
        {
          "internalType": "uint256",
          "name": "",
          "type": "uint256"
        }
      ],
      "payable": false,
      "stateMutability": "view",
      "type": "function"
    },
    {
      "constant": true,
      "inputs": [
        {
          "internalType": "uint256",
          "name": "",
          "type": "uint256"
        }
      ],
      "name": "profile",
      "outputs": [
        {
          "internalType": "uint256",
          "name": "id",
          "type": "uint256"
        },
        {
          "internalType": "string",
          "name": "hash",
          "type": "string"
        },
        {
          "internalType": "string",
          "name": "name",
          "type": "string"
        },
        {
          "internalType": "uint256",
          "name": "phoneNumber",
          "type": "uint256"
        },
        {
          "internalType": "string",
          "name": "bloodGroup",
          "type": "string"
        },
        {
          "internalType": "uint256",
          "name": "num",
          "type": "uint256"
        },
        {
          "internalType": "address payable",
          "name": "author",
          "type": "address"
        }
      ],
      "payable": false,
      "stateMutability": "view",
      "type": "function"
    },
    {
      "constant": true,
      "inputs": [
        {
          "internalType": "uint256",
          "name": "",
          "type": "uint256"
        }
      ],
      "name": "profile2",
      "outputs": [
        {
          "internalType": "uint256",
          "name": "id",
          "type": "uint256"
        },
        {
          "internalType": "string",
          "name": "hash",
          "type": "string"
        },
        {
          "internalType": "string",
          "name": "name",
          "type": "string"
        },
        {
          "internalType": "uint256",
          "name": "phoneNumber",
          "type": "uint256"
        },
        {
          "internalType": "string",
          "name": "bloodGroup",
          "type": "string"
        },
        {
          "internalType": "uint256",
          "name": "num",
          "type": "uint256"
        },
        {
          "internalType": "address payable",
          "name": "author",
          "type": "address"
        }
      ],
      "payable": false,
      "stateMutability": "view",
      "type": "function"
    },
    {
      "constant": true,
      "inputs": [
        {
          "internalType": "uint256",
          "name": "",
          "type": "uint256"
        }
      ],
      "name": "profile3",
      "outputs": [
        {
          "internalType": "uint256",
          "name": "id",
          "type": "uint256"
        },
        {
          "internalType": "string",
          "name": "hash",
          "type": "string"
        },
        {
          "internalType": "string",
          "name": "name",
          "type": "string"
        },
        {
          "internalType": "uint256",
          "name": "phoneNumber",
          "type": "uint256"
        },
        {
          "internalType": "string",
          "name": "bloodGroup",
          "type": "string"
        },
        {
          "internalType": "uint256",
          "name": "num",
          "type": "uint256"
        },
        {
          "internalType": "address payable",
          "name": "author",
          "type": "address"
        }
      ],
      "payable": false,
      "stateMutability": "view",
      "type": "function"
    },
    {
      "constant": true,
      "inputs": [],
      "name": "profileCount",
      "outputs": [
        {
          "internalType": "uint256",
          "name": "",
          "type": "uint256"
        }
      ],
      "payable": false,
      "stateMutability": "view",
      "type": "function"
    },
    {
      "constant": true,
      "inputs": [],
      "name": "profileCount2",
      "outputs": [
        {
          "internalType": "uint256",
          "name": "",
          "type": "uint256"
        }
      ],
      "payable": false,
      "stateMutability": "view",
      "type": "function"
    },
    {
      "constant": true,
      "inputs": [],
      "name": "profileCount3",
      "outputs": [
        {
          "internalType": "uint256",
          "name": "",
          "type": "uint256"
        }
      ],
      "payable": false,
      "stateMutability": "view",
      "type": "function"
    },
    {
      "constant": false,
      "inputs": [
        {
          "internalType": "string",
          "name": "_imgHash",
          "type": "string"
        },
        {
          "internalType": "string",
          "name": "_description",
          "type": "string"
        },
        {
          "internalType": "string",
          "name": "_date",
          "type": "string"
        },
        {
          "internalType": "uint256",
          "name": "_num",
          "type": "uint256"
        }
      ],
      "name": "uploadImage",
      "outputs": [],
      "payable": false,
      "stateMutability": "nonpayable",
      "type": "function"
    },
    {
      "constant": false,
      "inputs": [
        {
          "internalType": "string",
          "name": "_prescription",
          "type": "string"
        },
        {
          "internalType": "uint256",
          "name": "_num",
          "type": "uint256"
        }
      ],
      "name": "set",
      "outputs": [],
      "payable": false,
      "stateMutability": "nonpayable",
      "type": "function"
    },
    {
      "constant": false,
      "inputs": [
        {
          "internalType": "string",
          "name": "_hash",
          "type": "string"
        },
        {
          "internalType": "string",
          "name": "_name",
          "type": "string"
        },
        {
          "internalType": "uint256",
          "name": "_phoneNumber",
          "type": "uint256"
        },
        {
          "internalType": "string",
          "name": "_bloodGroup",
          "type": "string"
        },
        {
          "internalType": "uint256",
          "name": "_num",
          "type": "uint256"
        }
      ],
      "name": "uploadProfile",
      "outputs": [],
      "payable": false,
      "stateMutability": "nonpayable",
      "type": "function"
    }
  ],
  "bytecode": "0x6080604052600060015560006002556000600555600060065560006009556000600b556000600d553480156200003457600080fd5b506040518060400160405280600c81526020017f446563656e7472616772616d0000000000000000000000000000000000000000815250600090805190602001906200008292919062000089565b5062000138565b828054600181600116156101000203166002900490600052602060002090601f016020900481019282601f10620000cc57805160ff1916838001178555620000fd565b82800160010185558215620000fd579182015b82811115620000fc578251825591602001919060010190620000df565b5b5090506200010c919062000110565b5090565b6200013591905b808211156200013157600081600090555060010162000117565b5090565b90565b61330680620001486000396000f3fe608060405234801561001057600080fd5b50600436106101165760003560e01c80638a42ebe9116100a2578063c8f43d1611610071578063c8f43d1614611078578063d29f534714611160578063de6ee1661461117e578063e86ea4211461119c578063ef43acef146111ba57610116565b80638a42ebe914610c07578063a4894ee914610ccc578063bbce8c8114610e93578063bc53bd3a14610eb157610116565b806344cb7aa4116100e957806344cb7aa4146105805780637232664b1461059e57806372cd2b1a14610765578063736d159d1461092c57806380c6389c14610a1457610116565b806306fdde031461011b5780630bd0acb21461019e5780631083164c146103655780631ca68e6514610383575b600080fd5b6101236111d8565b6040518080602001828103825283818151815260200191508051906020019080838360005b83811015610163578082015181840152602081019050610148565b50505050905090810190601f1680156101905780820380516001836020036101000a031916815260200191505b509250505060405180910390f35b6101ca600480360360208110156101b457600080fd5b8101908080359060200190929190505050611276565b604051808881526020018060200180602001878152602001806020018681526020018573ffffffffffffffffffffffffffffffffffffffff1673ffffffffffffffffffffffffffffffffffffffff16815260200184810384528a818151815260200191508051906020019080838360005b8381101561025657808201518184015260208101905061023b565b50505050905090810190601f1680156102835780820380516001836020036101000a031916815260200191505b50848103835289818151815260200191508051906020019080838360005b838110156102bc5780820151818401526020810190506102a1565b50505050905090810190601f1680156102e95780820380516001836020036101000a031916815260200191505b50848103825287818151815260200191508051906020019080838360005b83811015610322578082015181840152602081019050610307565b50505050905090810190601f16801561034f5780820380516001836020036101000a031916815260200191505b509a505050505050505050505060405180910390f35b61036d6114a0565b6040518082815260200191505060405180910390f35b61057e600480360360a081101561039957600080fd5b81019080803590602001906401000000008111156103b657600080fd5b8201836020820111156103c857600080fd5b803590602001918460018302840111640100000000831117156103ea57600080fd5b91908080601f016020809104026020016040519081016040528093929190818152602001838380828437600081840152601f19601f8201169050808301925050505050505091929192908035906020019064010000000081111561044d57600080fd5b82018360208201111561045f57600080fd5b8035906020019184600183028401116401000000008311171561048157600080fd5b91908080601f016020809104026020016040519081016040528093929190818152602001838380828437600081840152601f19601f82011690508083019250505050505050919291929080359060200190929190803590602001906401000000008111156104ee57600080fd5b82018360208201111561050057600080fd5b8035906020019184600183028401116401000000008311171561052257600080fd5b91908080601f016020809104026020016040519081016040528093929190818152602001838380828437600081840152601f19601f820116905080830192505050505050509192919290803590602001909291905050506114a6565b005b610588611daa565b6040518082815260200191505060405180910390f35b6105ca600480360360208110156105b457600080fd5b8101908080359060200190929190505050611db0565b604051808881526020018060200180602001806020018781526020018681526020018573ffffffffffffffffffffffffffffffffffffffff1673ffffffffffffffffffffffffffffffffffffffff16815260200184810384528a818151815260200191508051906020019080838360005b8381101561065657808201518184015260208101905061063b565b50505050905090810190601f1680156106835780820380516001836020036101000a031916815260200191505b50848103835289818151815260200191508051906020019080838360005b838110156106bc5780820151818401526020810190506106a1565b50505050905090810190601f1680156106e95780820380516001836020036101000a031916815260200191505b50848103825288818151815260200191508051906020019080838360005b83811015610722578082015181840152602081019050610707565b50505050905090810190601f16801561074f5780820380516001836020036101000a031916815260200191505b509a505050505050505050505060405180910390f35b6107916004803603602081101561077b57600080fd5b8101908080359060200190929190505050611fda565b604051808881526020018060200180602001878152602001806020018681526020018573ffffffffffffffffffffffffffffffffffffffff1673ffffffffffffffffffffffffffffffffffffffff16815260200184810384528a818151815260200191508051906020019080838360005b8381101561081d578082015181840152602081019050610802565b50505050905090810190601f16801561084a5780820380516001836020036101000a031916815260200191505b50848103835289818151815260200191508051906020019080838360005b83811015610883578082015181840152602081019050610868565b50505050905090810190601f1680156108b05780820380516001836020036101000a031916815260200191505b50848103825287818151815260200191508051906020019080838360005b838110156108e95780820151818401526020810190506108ce565b50505050905090810190601f1680156109165780820380516001836020036101000a031916815260200191505b509a505050505050505050505060405180910390f35b6109586004803603602081101561094257600080fd5b8101908080359060200190929190505050612204565b60405180858152602001806020018481526020018373ffffffffffffffffffffffffffffffffffffffff1673ffffffffffffffffffffffffffffffffffffffff168152602001828103825285818151815260200191508051906020019080838360005b838110156109d65780820151818401526020810190506109bb565b50505050905090810190601f168015610a035780820380516001836020036101000a031916815260200191505b509550505050505060405180910390f35b610c0560048036036080811015610a2a57600080fd5b8101908080359060200190640100000000811115610a4757600080fd5b820183602082011115610a5957600080fd5b80359060200191846001830284011164010000000083111715610a7b57600080fd5b91908080601f016020809104026020016040519081016040528093929190818152602001838380828437600081840152601f19601f82011690508083019250505050505050919291929080359060200190640100000000811115610ade57600080fd5b820183602082011115610af057600080fd5b80359060200191846001830284011164010000000083111715610b1257600080fd5b91908080601f016020809104026020016040519081016040528093929190818152602001838380828437600081840152601f19601f82011690508083019250505050505050919291929080359060200190640100000000811115610b7557600080fd5b820183602082011115610b8757600080fd5b80359060200191846001830284011164010000000083111715610ba957600080fd5b91908080601f016020809104026020016040519081016040528093929190818152602001838380828437600081840152601f19601f820116905080830192505050505050509192919290803590602001909291905050506122ec565b005b610cca60048036036040811015610c1d57600080fd5b8101908080359060200190640100000000811115610c3a57600080fd5b820183602082011115610c4c57600080fd5b80359060200191846001830284011164010000000083111715610c6e57600080fd5b91908080601f016020809104026020016040519081016040528093929190818152602001838380828437600081840152601f19601f82011690508083019250505050505050919291929080359060200190929190505050612945565b005b610cf860048036036020811015610ce257600080fd5b8101908080359060200190929190505050612cd2565b604051808881526020018060200180602001878152602001806020018681526020018573ffffffffffffffffffffffffffffffffffffffff1673ffffffffffffffffffffffffffffffffffffffff16815260200184810384528a818151815260200191508051906020019080838360005b83811015610d84578082015181840152602081019050610d69565b50505050905090810190601f168015610db15780820380516001836020036101000a031916815260200191505b50848103835289818151815260200191508051906020019080838360005b83811015610dea578082015181840152602081019050610dcf565b50505050905090810190601f168015610e175780820380516001836020036101000a031916815260200191505b50848103825287818151815260200191508051906020019080838360005b83811015610e50578082015181840152602081019050610e35565b50505050905090810190601f168015610e7d5780820380516001836020036101000a031916815260200191505b509a505050505050505050505060405180910390f35b610e9b612efc565b6040518082815260200191505060405180910390f35b610edd60048036036020811015610ec757600080fd5b8101908080359060200190929190505050612f02565b604051808881526020018060200180602001806020018781526020018681526020018573ffffffffffffffffffffffffffffffffffffffff1673ffffffffffffffffffffffffffffffffffffffff16815260200184810384528a818151815260200191508051906020019080838360005b83811015610f69578082015181840152602081019050610f4e565b50505050905090810190601f168015610f965780820380516001836020036101000a031916815260200191505b50848103835289818151815260200191508051906020019080838360005b83811015610fcf578082015181840152602081019050610fb4565b50505050905090810190601f168015610ffc5780820380516001836020036101000a031916815260200191505b50848103825288818151815260200191508051906020019080838360005b8381101561103557808201518184015260208101905061101a565b50505050905090810190601f1680156110625780820380516001836020036101000a031916815260200191505b509a505050505050505050505060405180910390f35b6110a46004803603602081101561108e57600080fd5b810190808035906020019092919050505061312c565b60405180858152602001806020018481526020018373ffffffffffffffffffffffffffffffffffffffff1673ffffffffffffffffffffffffffffffffffffffff168152602001828103825285818151815260200191508051906020019080838360005b83811015611122578082015181840152602081019050611107565b50505050905090810190601f16801561114f5780820380516001836020036101000a031916815260200191505b509550505050505060405180910390f35b611168613214565b6040518082815260200191505060405180910390f35b61118661321a565b6040518082815260200191505060405180910390f35b6111a4613220565b6040518082815260200191505060405180910390f35b6111c2613226565b6040518082815260200191505060405180910390f35b60008054600181600116156101000203166002900480601f01602080910402602001604051908101604052809291908181526020018280546001816001161561010002031660029004801561126e5780601f106112435761010080835404028352916020019161126e565b820191906000526020600020905b81548152906001019060200180831161125157829003601f168201915b505050505081565b600e602052806000526040600020600091509050806000015490806001018054600181600116156101000203166002900480601f0160208091040260200160405190810160405280929190818152602001828054600181600116156101000203166002900480156113285780601f106112fd57610100808354040283529160200191611328565b820191906000526020600020905b81548152906001019060200180831161130b57829003601f168201915b505050505090806002018054600181600116156101000203166002900480601f0160208091040260200160405190810160405280929190818152602001828054600181600116156101000203166002900480156113c65780601f1061139b576101008083540402835291602001916113c6565b820191906000526020600020905b8154815290600101906020018083116113a957829003601f168201915b505050505090806003015490806004018054600181600116156101000203166002900480601f01602080910402602001604051908101604052809291908181526020018280546001816001161561010002031660029004801561146a5780601f1061143f5761010080835404028352916020019161146a565b820191906000526020600020905b81548152906001019060200180831161144d57829003601f168201915b5050505050908060050154908060060160009054906101000a900473ffffffffffffffffffffffffffffffffffffffff16905087565b600d5481565b60018114156117a9576009600081548092919060010191905055506040518060e0016040528060095481526020018681526020018581526020018481526020018381526020018281526020013373ffffffffffffffffffffffffffffffffffffffff16815250600a6000600954815260200190815260200160002060008201518160000155602082015181600101908051906020019061154792919061322c565b50604082015181600201908051906020019061156492919061322c565b5060608201518160030155608082015181600401908051906020019061158b92919061322c565b5060a0820151816005015560c08201518160060160006101000a81548173ffffffffffffffffffffffffffffffffffffffff021916908373ffffffffffffffffffffffffffffffffffffffff1602179055509050507ff67bea7ca0f28ebd47fc5de24d33c7eae102b8eb7cab0a83bb16d2f857833b4c600954868686868633604051808881526020018060200180602001878152602001806020018681526020018573ffffffffffffffffffffffffffffffffffffffff1673ffffffffffffffffffffffffffffffffffffffff16815260200184810384528a818151815260200191508051906020019080838360005b8381101561169657808201518184015260208101905061167b565b50505050905090810190601f1680156116c35780820380516001836020036101000a031916815260200191505b50848103835289818151815260200191508051906020019080838360005b838110156116fc5780820151818401526020810190506116e1565b50505050905090810190601f1680156117295780820380516001836020036101000a031916815260200191505b50848103825287818151815260200191508051906020019080838360005b83811015611762578082015181840152602081019050611747565b50505050905090810190601f16801561178f5780820380516001836020036101000a031916815260200191505b509a505050505050505050505060405180910390a1611da3565b6002811415611aac57600b600081548092919060010191905055506040518060e00160405280600b5481526020018681526020018581526020018481526020018381526020018281526020013373ffffffffffffffffffffffffffffffffffffffff16815250600c6000600b54815260200190815260200160002060008201518160000155602082015181600101908051906020019061184a92919061322c565b50604082015181600201908051906020019061186792919061322c565b5060608201518160030155608082015181600401908051906020019061188e92919061322c565b5060a0820151816005015560c08201518160060160006101000a81548173ffffffffffffffffffffffffffffffffffffffff021916908373ffffffffffffffffffffffffffffffffffffffff1602179055509050507fdd3cf3e668c16393aec44ddb0dd4c5c737b69eb44fe8023ed099f45e2f55fe38600b54868686868633604051808881526020018060200180602001878152602001806020018681526020018573ffffffffffffffffffffffffffffffffffffffff1673ffffffffffffffffffffffffffffffffffffffff16815260200184810384528a818151815260200191508051906020019080838360005b8381101561199957808201518184015260208101905061197e565b50505050905090810190601f1680156119c65780820380516001836020036101000a031916815260200191505b50848103835289818151815260200191508051906020019080838360005b838110156119ff5780820151818401526020810190506119e4565b50505050905090810190601f168015611a2c5780820380516001836020036101000a031916815260200191505b50848103825287818151815260200191508051906020019080838360005b83811015611a65578082015181840152602081019050611a4a565b50505050905090810190601f168015611a925780820380516001836020036101000a031916815260200191505b509a505050505050505050505060405180910390a1611da2565b600d600081548092919060010191905055506040518060e00160405280600d5481526020018681526020018581526020018481526020018381526020018281526020013373ffffffffffffffffffffffffffffffffffffffff16815250600e6000600d548152602001908152602001600020600082015181600001556020820151816001019080519060200190611b4492919061322c565b506040820151816002019080519060200190611b6192919061322c565b50606082015181600301556080820151816004019080519060200190611b8892919061322c565b5060a0820151816005015560c08201518160060160006101000a81548173ffffffffffffffffffffffffffffffffffffffff021916908373ffffffffffffffffffffffffffffffffffffffff1602179055509050507fd923b0d57e852083cb34ce5ec9c6b3b7428a6fa46d59683dce936d3216953db0600d54868686868633604051808881526020018060200180602001878152602001806020018681526020018573ffffffffffffffffffffffffffffffffffffffff1673ffffffffffffffffffffffffffffffffffffffff16815260200184810384528a818151815260200191508051906020019080838360005b83811015611c93578082015181840152602081019050611c78565b50505050905090810190601f168015611cc05780820380516001836020036101000a031916815260200191505b50848103835289818151815260200191508051906020019080838360005b83811015611cf9578082015181840152602081019050611cde565b50505050905090810190601f168015611d265780820380516001836020036101000a031916815260200191505b50848103825287818151815260200191508051906020019080838360005b83811015611d5f578082015181840152602081019050611d44565b50505050905090810190601f168015611d8c5780820380516001836020036101000a031916815260200191505b509a505050505050505050505060405180910390a15b5b5050505050565b60065481565b6008602052806000526040600020600091509050806000015490806001018054600181600116156101000203166002900480601f016020809104026020016040519081016040528092919081815260200182805460018160011615610100020316600290048015611e625780601f10611e3757610100808354040283529160200191611e62565b820191906000526020600020905b815481529060010190602001808311611e4557829003601f168201915b505050505090806002018054600181600116156101000203166002900480601f016020809104026020016040519081016040528092919081815260200182805460018160011615610100020316600290048015611f005780601f10611ed557610100808354040283529160200191611f00565b820191906000526020600020905b815481529060010190602001808311611ee357829003601f168201915b505050505090806003018054600181600116156101000203166002900480601f016020809104026020016040519081016040528092919081815260200182805460018160011615610100020316600290048015611f9e5780601f10611f7357610100808354040283529160200191611f9e565b820191906000526020600020905b815481529060010190602001808311611f8157829003601f168201915b5050505050908060040154908060050154908060060160009054906101000a900473ffffffffffffffffffffffffffffffffffffffff16905087565b600a602052806000526040600020600091509050806000015490806001018054600181600116156101000203166002900480601f01602080910402602001604051908101604052809291908181526020018280546001816001161561010002031660029004801561208c5780601f106120615761010080835404028352916020019161208c565b820191906000526020600020905b81548152906001019060200180831161206f57829003601f168201915b505050505090806002018054600181600116156101000203166002900480601f01602080910402602001604051908101604052809291908181526020018280546001816001161561010002031660029004801561212a5780601f106120ff5761010080835404028352916020019161212a565b820191906000526020600020905b81548152906001019060200180831161210d57829003601f168201915b505050505090806003015490806004018054600181600116156101000203166002900480601f0160208091040260200160405190810160405280929190818152602001828054600181600116156101000203166002900480156121ce5780601f106121a3576101008083540402835291602001916121ce565b820191906000526020600020905b8154815290600101906020018083116121b157829003601f168201915b5050505050908060050154908060060160009054906101000a900473ffffffffffffffffffffffffffffffffffffffff16905087565b6003602052806000526040600020600091509050806000015490806001018054600181600116156101000203166002900480601f0160208091040260200160405190810160405280929190818152602001828054600181600116156101000203166002900480156122b65780601f1061228b576101008083540402835291602001916122b6565b820191906000526020600020905b81548152906001019060200180831161229957829003601f168201915b5050505050908060020154908060030160009054906101000a900473ffffffffffffffffffffffffffffffffffffffff16905084565b60008451116122fa57600080fd5b600083511161230857600080fd5b600073ffffffffffffffffffffffffffffffffffffffff163373ffffffffffffffffffffffffffffffffffffffff16141561234257600080fd5b6001811415612647576001600081548092919060010191905055506040518060e001604052806001548152602001858152602001848152602001838152602001828152602001600081526020013373ffffffffffffffffffffffffffffffffffffffff168152506004600060015481526020019081526020016000206000820151816000015560208201518160010190805190602001906123e492919061322c565b50604082015181600201908051906020019061240192919061322c565b50606082015181600301908051906020019061241e92919061322c565b506080820151816004015560a0820151816005015560c08201518160060160006101000a81548173ffffffffffffffffffffffffffffffffffffffff021916908373ffffffffffffffffffffffffffffffffffffffff1602179055509050507ff8b24cddf3960a2b98c1caeb4cfca233280e0088b4890395682d1b4f89e1983660015485858585600033604051808881526020018060200180602001806020018781526020018681526020018573ffffffffffffffffffffffffffffffffffffffff1673ffffffffffffffffffffffffffffffffffffffff16815260200184810384528a818151815260200191508051906020019080838360005b83811015612534578082015181840152602081019050612519565b50505050905090810190601f1680156125615780820380516001836020036101000a031916815260200191505b50848103835289818151815260200191508051906020019080838360005b8381101561259a57808201518184015260208101905061257f565b50505050905090810190601f1680156125c75780820380516001836020036101000a031916815260200191505b50848103825288818151815260200191508051906020019080838360005b838110156126005780820151818401526020810190506125e5565b50505050905090810190601f16801561262d5780820380516001836020036101000a031916815260200191505b509a505050505050505050505060405180910390a161293f565b6005600081548092919060010191905055506040518060e001604052806005548152602001858152602001848152602001838152602001828152602001600081526020013373ffffffffffffffffffffffffffffffffffffffff168152506008600060055481526020019081526020016000206000820151816000015560208201518160010190805190602001906126e092919061322c565b5060408201518160020190805190602001906126fd92919061322c565b50606082015181600301908051906020019061271a92919061322c565b506080820151816004015560a0820151816005015560c08201518160060160006101000a81548173ffffffffffffffffffffffffffffffffffffffff021916908373ffffffffffffffffffffffffffffffffffffffff1602179055509050507f0713f14d339c82814df1dcdf8c2d8bb75d0b87ba90da6d497b1f7a030b1983ec60055485858585600033604051808881526020018060200180602001806020018781526020018681526020018573ffffffffffffffffffffffffffffffffffffffff1673ffffffffffffffffffffffffffffffffffffffff16815260200184810384528a818151815260200191508051906020019080838360005b83811015612830578082015181840152602081019050612815565b50505050905090810190601f16801561285d5780820380516001836020036101000a031916815260200191505b50848103835289818151815260200191508051906020019080838360005b8381101561289657808201518184015260208101905061287b565b50505050905090810190601f1680156128c35780820380516001836020036101000a031916815260200191505b50848103825288818151815260200191508051906020019080838360005b838110156128fc5780820151818401526020810190506128e1565b50505050905090810190601f1680156129295780820380516001836020036101000a031916815260200191505b509a505050505050505050505060405180910390a15b50505050565b6001811415612b1057600260008154809291906001019190505550604051806080016040528060025481526020018381526020018281526020013373ffffffffffffffffffffffffffffffffffffffff168152506003600060025481526020019081526020016000206000820151816000015560208201518160010190805190602001906129d492919061322c565b506040820151816002015560608201518160030160006101000a81548173ffffffffffffffffffffffffffffffffffffffff021916908373ffffffffffffffffffffffffffffffffffffffff1602179055509050507f4ec8f3386389407a89b54c53e98ddd26518c65becbe4278d7d5bfd0f309945fa60025483833360405180858152602001806020018481526020018373ffffffffffffffffffffffffffffffffffffffff1673ffffffffffffffffffffffffffffffffffffffff168152602001828103825285818151815260200191508051906020019080838360005b83811015612ace578082015181840152602081019050612ab3565b50505050905090810190601f168015612afb5780820380516001836020036101000a031916815260200191505b509550505050505060405180910390a1612cce565b600660008154809291906001019190505550604051806080016040528060065481526020018381526020018281526020013373ffffffffffffffffffffffffffffffffffffffff16815250600760006006548152602001908152602001600020600082015181600001556020820151816001019080519060200190612b9692919061322c565b506040820151816002015560608201518160030160006101000a81548173ffffffffffffffffffffffffffffffffffffffff021916908373ffffffffffffffffffffffffffffffffffffffff1602179055509050507f9743274decf1b45186d7a75a9dd6c4603bea36463b8106a3b61fb958837bce9560065483833360405180858152602001806020018481526020018373ffffffffffffffffffffffffffffffffffffffff1673ffffffffffffffffffffffffffffffffffffffff168152602001828103825285818151815260200191508051906020019080838360005b83811015612c90578082015181840152602081019050612c75565b50505050905090810190601f168015612cbd5780820380516001836020036101000a031916815260200191505b509550505050505060405180910390a15b5050565b600c602052806000526040600020600091509050806000015490806001018054600181600116156101000203166002900480601f016020809104026020016040519081016040528092919081815260200182805460018160011615610100020316600290048015612d845780601f10612d5957610100808354040283529160200191612d84565b820191906000526020600020905b815481529060010190602001808311612d6757829003601f168201915b505050505090806002018054600181600116156101000203166002900480601f016020809104026020016040519081016040528092919081815260200182805460018160011615610100020316600290048015612e225780601f10612df757610100808354040283529160200191612e22565b820191906000526020600020905b815481529060010190602001808311612e0557829003601f168201915b505050505090806003015490806004018054600181600116156101000203166002900480601f016020809104026020016040519081016040528092919081815260200182805460018160011615610100020316600290048015612ec65780601f10612e9b57610100808354040283529160200191612ec6565b820191906000526020600020905b815481529060010190602001808311612ea957829003601f168201915b5050505050908060050154908060060160009054906101000a900473ffffffffffffffffffffffffffffffffffffffff16905087565b60055481565b6004602052806000526040600020600091509050806000015490806001018054600181600116156101000203166002900480601f016020809104026020016040519081016040528092919081815260200182805460018160011615610100020316600290048015612fb45780601f10612f8957610100808354040283529160200191612fb4565b820191906000526020600020905b815481529060010190602001808311612f9757829003601f168201915b505050505090806002018054600181600116156101000203166002900480601f0160208091040260200160405190810160405280929190818152602001828054600181600116156101000203166002900480156130525780601f1061302757610100808354040283529160200191613052565b820191906000526020600020905b81548152906001019060200180831161303557829003601f168201915b505050505090806003018054600181600116156101000203166002900480601f0160208091040260200160405190810160405280929190818152602001828054600181600116156101000203166002900480156130f05780601f106130c5576101008083540402835291602001916130f0565b820191906000526020600020905b8154815290600101906020018083116130d357829003601f168201915b5050505050908060040154908060050154908060060160009054906101000a900473ffffffffffffffffffffffffffffffffffffffff16905087565b6007602052806000526040600020600091509050806000015490806001018054600181600116156101000203166002900480601f0160208091040260200160405190810160405280929190818152602001828054600181600116156101000203166002900480156131de5780601f106131b3576101008083540402835291602001916131de565b820191906000526020600020905b8154815290600101906020018083116131c157829003601f168201915b5050505050908060020154908060030160009054906101000a900473ffffffffffffffffffffffffffffffffffffffff16905084565b60015481565b600b5481565b60025481565b60095481565b828054600181600116156101000203166002900490600052602060002090601f016020900481019282601f1061326d57805160ff191683800117855561329b565b8280016001018555821561329b579182015b8281111561329a57825182559160200191906001019061327f565b5b5090506132a891906132ac565b5090565b6132ce91905b808211156132ca5760008160009055506001016132b2565b5090565b9056fea265627a7a72315820a26dbb21473ca2ec30936c08910827c74545b385fd02dd2cc7518ab2b11bb61864736f6c63430005100032",
  "source": "pragma solidity ^0.5.0;\n\ncontract Decentragram {\n  string public name;\n  uint public patient1Count = 0;\n  uint public prescCount1=0;\n  mapping(uint => Data1) public data1;\n  mapping(uint => Image1) public images1;\n\n  uint public patient2Count = 0;\n  uint public prescCount2=0;\n  mapping(uint => Data2) public data2;\n  mapping(uint => Image2) public images2;\n\n  struct Image1 {\n    uint id;\n    string hash;\n    string description;\n    string date;\n    uint num;\n    uint tipAmount;\n    address payable author;\n  }\n\n\n  event ImageCreated1(\n    uint id,\n    string hash,\n    string description,\n    string date,\n    uint num,\n    uint tipAmount,\n    address payable author\n  );\n\n\n  struct Image2 {\n    uint id;\n    string hash;\n    string description;\n    string date;\n    uint num;\n    uint tipAmount;\n    address payable author;\n  }\n\n\n  event ImageCreated2(\n    uint id,\n    string hash,\n    string description,\n    string date,\n    uint num,\n    uint tipAmount,\n    address payable author\n  );\n\n  constructor() public {\n    name = \"Decentragram\";\n  }\n\n  function uploadImage(string memory _imgHash, string memory _description,string memory _date,uint _num) public {\n    // Make sure the image hash exists\n    require(bytes(_imgHash).length > 0);\n    // Make sure image description exists\n    require(bytes(_description).length > 0);\n    // Make sure uploader address exists\n    require(msg.sender!=address(0));\n    if(_num==1){\n      // Increment image id\n      patient1Count ++;\n\n      // Add Image to the contract\n      images1[patient1Count] = Image1(patient1Count, _imgHash, _description,_date, _num,0, msg.sender);\n      // Trigger an event\n      emit ImageCreated1(patient1Count, _imgHash, _description,_date,_num, 0, msg.sender);\n    }\n    else{\n      // Increment image id\n      patient2Count ++;\n\n      // Add Image to the contract\n      images2[patient2Count] = Image2(patient2Count, _imgHash, _description,_date ,_num,0, msg.sender);\n      // Trigger an event\n      emit ImageCreated2(patient2Count, _imgHash, _description,_date,_num,0, msg.sender);\n    }\n\n  }\n\n\n  struct Data1{\n    uint id;\n    string prescription;\n    uint num;\n    address payable author;\n  }\n\n  event DataCreated1(\n    uint id,\n    string prescription,\n    uint num,\n    address payable author\n    );\n\n  struct Data2{\n    uint id;\n    string prescription;\n    uint num;\n    address payable author;\n  }\n\n  event DataCreated2(\n    uint id,\n    string prescription,\n    uint num,\n    address payable author\n    );\n\n  function set(string memory _prescription,uint _num) public {\n    if(_num==1){\n      prescCount1 ++;\n      data1[prescCount1]=Data1(prescCount1,_prescription,_num,msg.sender);\n      emit DataCreated1(prescCount1,_prescription,_num,msg.sender);\n    }\n    else{\n      prescCount2 ++;\n      data2[prescCount2]=Data2(prescCount2,_prescription,_num,msg.sender);\n      emit DataCreated2(prescCount2,_prescription,_num,msg.sender);\n    }\n\n\n  }\n\n\n\nuint public profileCount=0;    \nmapping(uint => Profile) public profile;\n\n\nstruct Profile{\n    uint id;\n    string hash;\n    string name;\n    uint phoneNumber;\n    string bloodGroup;\n    uint num;\n    address payable author;\n  }\n\n  event ProfileCreated(\n    uint id,\n    string hash,\n    string name,\n    uint phoneNumber,\n    string bloodGroup,\n    uint num,\n    address payable author\n    );\n\n\n\nuint public profileCount2=0;    \nmapping(uint => Profile2) public profile2;\n\n\nstruct Profile2{\n    uint id;\n    string hash;\n    string name;\n    uint phoneNumber;\n    string bloodGroup;\n    uint num;\n    address payable author;\n  }\n\n  event ProfileCreated2(\n    uint id,\n    string hash,\n    string name,\n    uint phoneNumber,\n    string bloodGroup,\n    uint num,\n    address payable author\n    );\n\n\nuint public profileCount3=0;    \nmapping(uint => Profile3) public profile3;\n\n\nstruct Profile3{\n    uint id;\n    string hash;\n    string name;\n    uint phoneNumber;\n    string bloodGroup;\n    uint num;\n    address payable author;\n  }\n\n  event ProfileCreated3(\n    uint id,\n    string hash,\n    string name,\n    uint phoneNumber,\n    string bloodGroup,\n    uint num,\n    address payable author\n    );\n\n\n  function uploadProfile(string memory _hash,string memory _name,uint _phoneNumber,string memory _bloodGroup,uint _num) public {\n     \n     if(_num==1){\n        profileCount ++;\n        profile[profileCount]=Profile(profileCount,_hash,_name,_phoneNumber,_bloodGroup,_num,msg.sender);\n        emit ProfileCreated(profileCount,_hash,_name,_phoneNumber,_bloodGroup,_num,msg.sender);\n      }\n      else if(_num==2){\n        profileCount2 ++;\n        profile2[profileCount2]=Profile2(profileCount2,_hash,_name,_phoneNumber,_bloodGroup,_num,msg.sender);\n        emit ProfileCreated2(profileCount2,_hash,_name,_phoneNumber,_bloodGroup,_num,msg.sender);\n      }\n      else{\n        profileCount3 ++;\n        profile3[profileCount3]=Profile3(profileCount3,_hash,_name,_phoneNumber,_bloodGroup,_num,msg.sender);\n        emit ProfileCreated3(profileCount3,_hash,_name,_phoneNumber,_bloodGroup,_num,msg.sender);\n      }\n    }\n\n\n}",
  "sourcePath": "C:/Users/Akash/Downloads/HealthCare_Blockchain-master/src/contracts/Decentragram.sol",
  "compiler": {
    "name": "solc",
    "version": "0.5.16+commit.9c3226ce.Emscripten.clang"
  },
  "schemaVersion": "3.2.3",
  "updatedAt": "2021-05-16T05:02:11.779Z",
  "networkType": "ethereum",
  "devdoc": {
    "methods": {}
  },
  "userdoc": {
    "methods": {}
  }
}